:020000040002F8
:10600000A85B0020DD630200E5630200E763020095
:10601000E9630200EB630200ED6302000000000090
:10602000000000000000000000000000EF6302001C
:10603000F163020000000000F3630200F563020058
:1060400099680200F7630200E96C0200916902009E
:10605000F7630200F7630200DD670200F7630200E6
:10606000F7630200F7630200F7630200F7630200C0
:10607000F7630200F7630200F7630200F7630200B0
:10608000F7630200ED680200F7630200F7630200A5
:10609000F7630200F7630200396A0200F763020047
:1060A000F7630200F7630200F7630200F763020080
:1060B000F7630200F7630200000000000000000028
:1060C000F7630200F7630200F7630200F763020060
:1060D000F7630200F7630200F763020000000000AC
:1060E00000000000000000000000000000000000B0
:1060F00000000000000000000000000000000000A0
:10610000000000000000000000000000000000008F
:10611000000000000000000000000000000000007F
:10612000000000000000000000000000000000006F
:10613000000000000000000000000000000000005F
:10614000000000000000000000000000000000004F
:10615000000000000000000000000000000000003F
:10616000000000000000000000000000000000002F
:10617000000000000000000000000000000000001F
:10618000000000000000000000000000000000000F
:1061900000000000000000000000000000000000FF
:1061A00000000000000000000000000000000000EF
:1061B00000000000000000000000000000000000DF
:1061C00000000000000000000000000000000000CF
:1061D00000000000000000000000000000000000BF
:1061E00000000000000000000000000000000000AF
:1061F000000000000000000000000000000000009F
:10620000DFF80CD000F092F9004800476DC402009E
:10621000A85B002000B583B002900091019244F287
:10622000010071466A4601F099F803B000BD000014
:1062300030B450E8012F93B2C48923448489A34227
:1062400028BF1B1B0489A34202BFBFF32F8F00206E
:1062500007E0C3EA020340E80134002CE9D14FF023
:1062600001000A6030BC704750E8012FC2EA0242C8
:1062700040E801210029F7D1704730B450E8022FDF
:106280001FFAA2F3C488A34202BFBFF32F8F0020DE
:106290000DE0C48923448489A34228BF1B1BC2EAA2
:1062A000034340E80234002CE8D14FF001000A60BB
:1062B00030BC704750E8022FC2EA224240E8022177
:1062C0000029F7D17047034653E8022FD988B2EB73
:1062D000324F4FF0000017BF92B241EA014142EA4B
:1062E000014104E05A68B2EB324F08BF012043E895
:1062F0000212002AE8D1704730B4044654E8000F77
:106300000D4644E80053002BF8D1156030BC7047AF
:1063100030B4044654E8000F40EA010544E8005355
:10632000002BF7D1156030BC704730B4044654E8F8
:10633000000F00EA010544E80053002BF7D1156077
:1063400030BC704730B4044654E8000F80EA0105C1
:1063500044E80053002BF7D1156030BC704730B4CF
:10636000044654E8000F00EB010544E80053002BFD
:10637000F7D1156030BC704730B4044654E8000FC4
:10638000A0EB010544E80053002BF7D1156030BCA9
:10639000704770B404464FF0000054E8006F0D6879
:1063A000AE4207BF44E80023012044E800630E60CA
:1063B000002B1CBF0020F0E770BC704730B40446CF
:1063C00054E8000F88422CBF451A054644E80053A4
:1063D000002BF5D1156030BC70470000064880479F
:1063E00006480047FEE7FEE7FEE7FEE7FEE7FEE7BA
:1063F000FEE7FEE7FEE7FEE7516A020001620200E7
:106400002DE9F05F0546002092469B4688460646E9
:10641000814640241BE0284641464746224600F07C
:1064200074F853465A46C01A914110D31146184683
:10643000224600F016F82D1A67EB01084F46224657
:106440000120002100F00DF817EB00094E41201E3D
:10645000A4F10104DFDC484631462A464346BDE844
:10646000F09F202A04DB203A00FA02F10020704756
:106470009140C2F1200320FA03F319439040704782
:1064800000487047985B030040EA01039B0703D074
:1064900009E008C9121F08C0042AFAD203E011F863
:1064A000013B00F8013B521EF9D27047D2B201E025
:1064B00000F8012B491EFBD270470022F6E710B509
:1064C00013460A4604461946FFF7F0FF204610BD62
:1064D000421C10F8011B0029FBD1801A704730B50F
:1064E00004460020034600E05B1C934203D2E05CBC
:1064F000CD5C401BF8D030BD034611F8012B00F8ED
:10650000012B002AF9D118467047202A04DB203AD3
:1065100021FA02F00021704721FA02F3D040C2F1C3
:10652000200291400843194670470000064C074D71
:1065300006E0E06840F0010394E807009847103453
:10654000AC42F6D3FFF760FE88750300A875030020
:1065500070B58C1810F8015B15F0070301D110F825
:10656000013B2A1106D110F8012B03E010F8016B52
:1065700001F8016B5B1EF9D12B0705D40023521ED5
:106580000DD401F8013BFAE710F8013BCB1A921C3D
:1065900003E013F8015B01F8015B521EF9D5A1423B
:1065A000D8D3002070BD10B5092007F019F90A20D2
:1065B00007F016F90B2007F013F9092007F0B3F9DB
:1065C0000B2007F0B0F90A2007F07AF910BD10B5DA
:1065D000092007F075F91A2000F0AEF8FA2000E063
:1065E000401E0028FCDC092007F09DF9012006F080
:1065F000D7FB10BD10B5092007F062F9102000F09C
:106600009BF8FA2000E0401E0028FCDC092007F07F
:106610008AF9012006F0C4FB10BD10B5092007F06F
:106620004FF9062000F088F8012006F0B9FB092098
:1066300007F079F910BD000070B5044604F12000A0
:10664000C5B2092007F03CF9284600F075F8FA2099
:1066500000E0401E0028FCDC002000F06DF8FA206D
:1066600000E0401E0028FCDC002000F065F8064930
:106670000855FA2000E0401E0028FCDC092007F045
:1066800052F90148005D70BD802B002010B5092033
:1066900007F016F9112000F04FF8FA2000E0401E34
:1066A0000028FCDC092007F03EF9012006F078FB09
:1066B00010BD10B5092007F003F9082000F03CF8E0
:1066C000FA2000E0401E0028FCDC092007F02BF92E
:1066D00010BD000070B504460D4604F14000C6B27E
:1066E000092007F0EDF8304600F026F8FA2000E027
:1066F000401E0028FCDC002000F01EF8FA2000E01C
:10670000401E0028FCDC284600F016F8FA2000E0C5
:10671000401E0028FCDC092007F005F90148005D57
:1067200070BD0000802B002010B50020FFF784FF13
:106730000446204610BD00002DE9F04F85B0044608
:106740001948047000201949087000BF184FDFF87D
:1067500058804FF00109DFF85CA0CB460490CDF8DB
:106760000080CDF80490CDF808A0CDF80CB0002240
:106770006946381D08F0CAFD04900498064636B1F3
:1067800000BF0DA26E213046FFF744FD00BF00BFE1
:1067900000BF064800780028FBD006480578284648
:1067A00005B0BDE8F08F0000802900206C22002099
:1067B00020550300802A00202E2E5C2E2E5C2E2ECB
:1067C0005C2E2E5C2E2E5C2E2E5C64726976655CCF
:1067D000414453313239322E630000002DE9F84F25
:1067E0000026002000904FF480770125002410E05F
:1067F000384607F007F940B100BF25480068284037
:1068000018B1384607F0F0F82E436D00381D87B2F6
:10681000641C082CECD34FF4BE7007F0F3F850B1B1
:106820004FF4BE7007F0E0F846F000466A460121DA
:10683000002007F02BF8F0B210B3012500241DE072
:1068400005EA0600C0B100BF124850F82400C0F3AA
:106850000420814600BF0F4850F82400C0F30140D7
:106860008246204602F070FB8046B8F1000F02D04D
:1068700051464846C04700BF6D00641C082CDFD35A
:1068800006F0004010B168460BF0FAFBBDE8F88F47
:10689000046300401065004010B54FF4807006F0AE
:1068A00062FA80B14FF4807006F066FA012006F0BB
:1068B0006DFA0D48407930B901200B4948710846FE
:1068C0000168002088474FF4827006F04CFA50B1FE
:1068D0004FF4827006F050FA022006F057FA024890
:1068E00001680120884710BDC823002010B5034A65
:1068F0001068034A1168884710BD0000002400207A
:10690000FC23002010B500F0F7F910BD2DE9F04789
:10691000074688461646C24607EB47011B4800EB70
:10692000C109D9F8140020B1012811D0022826D1BC
:106930001EE0484600F018FA0546B54201D2002490
:1069400005E0344632465146484600F054FA18E015
:10695000484600F009FA0546B54201D2284600E053
:106960003046044622465146484600F044FA08E0C4
:1069700032465146484600F005FA044601E000243C
:1069800000BF00BF2046BDE8F08700003839002076
:1069900010B50249024805F026FA10BDBC300020AF
:1069A000003000401FB5184B0FCB8DE80F00FF20C3
:1069B0008DF8030008208DF8010006208DF80200F4
:1069C00007208DF8000003208DF80400C007029016
:1069D000FF208DF8050000208DF80D0001208DF8B6
:1069E0000C0000BF0023094A6946094806F02EFA48
:1069F000044634B100BF07A25B212046FFF70AFC22
:106A000000BF00BF1FBD000038550300E140030078
:106A1000205503002E2E5C2E2E5C2E2E5C2E2E5C1E
:106A20002E2E5C2E2E5C64726976655C4144533177
:106A30003239322E6300000010B507F0A9FF10BDF7
:106A400001480249086070470090D003CC24002020
:106A500010B503F00DF928B192480088C0F3042066
:106A60009149086003F058F910B19048904948677F
:106A700003F07AF930B18B48E0380068C0F3423057
:106A80008C49086003F09AF928B18B48006820F01F
:106A900080708949086003F0A9F948B1002087494E
:106AA00008604FF08041C1F810018249091F086059
:106AB00003F0C6F918B103207E496431086003F081
:106AC000D7F968B105207E49086001207C497831FA
:106AD000086000207A49083108603F20091F0860DB
:106AE00003F0DEF9002855D06E48E03000687549A3
:106AF00008606C48E4300068091D08606948E830A7
:106B00000068091D08606748EC300068091D0860CE
:106B10006448F0300068091D08606248F43000687D
:106B2000091D08605F48F830006866492031086038
:106B30005C48FC300068091D086063480068091D56
:106B400008606148001D0068091D08605E48083043
:106B50000068091D08605C480C300068091D086069
:106B60005948103000685749403108605648143081
:106B70000068091D0860544818300068091D086045
:106B800051481C300068091D08604F4820300068DB
:106B9000091D086003F042F830B14248CC38006863
:106BA00000F04F004949086003F08CF840B14848B4
:106BB000006800F0010018B16FF00100444908605E
:106BC00003F0C2F828B14348006840F480604149AE
:106BD000086039487438006840F4700036497439E8
:106BE000086000BF00BF00BFBFF34F8F00BF00BFF2
:106BF00000BF00BF00BF00BFBFF36F8F00BF00BF6B
:106C000000BF3548006800F0004028B93248001D38
:106C1000006800F00040E8B301203049086000BF80
:106C20002F4800680028FBD015202B49086000BFC2
:106C30002B4800680028FBD015212748001D016063
:106C400000BF274800680028FBD0002023490860C7
:106C500000BF234800680028FBD000BF00BF00BF72
:106C600000BF00BFBFF34F8F00BF00BF00BF12487F
:106C7000F038006800F4E0601A490843001D0E492E
:106C8000F039086000BF00BF00BFBFF34F8F00BFE7
:106C900000BF00E003E000BF00BF00BFFDE7FFF75B
:106CA000CFFE10BD24030010403501400DF0ADBAF9
:106CB00000C007403C050040FCED00E00C01004036
:106CC0001056004020C5004024040010E40E00408F
:106CD000000400403C1700400012001004E5014091
:106CE00000E401400000FA0510B502490868804739
:106CF00010BD0000D023002010B5124C02202061EE
:106D0000606111A0A0611349E1614FF4007121623B
:106D10000021A1626162E1620BA0A0640E49E164FE
:106D2000102121650021A1656165E1650BA1E01DD0
:106D3000FFF7E2FB0AA12046FFF7DEFB2020A0714F
:106D400010BD0000203900205465726D696E616CC1
:106D50000000000098390020983B00205254540055
:106D6000534547474552000010B501460A69CB68B4
:106D70009A4204D88C68641EE41AA01801E0D41A60
:106D8000601E10BD2DE9F0470446894617464FF0B6
:106D9000000AE56800BFD4F81080A84503D9A8EB25
:106DA0000500461E04E0A5EB0800401CA1680E1A71
:106DB000A068401BB04201D9304601E0A068401BEA
:106DC0000646BE4201D2304600E0384606466168BB
:106DD000481932464946FFF757FBB244B144BF1B3E
:106DE0003544A068A84200D10025E560002FD2D12B
:106DF0005046BDE8F0872DE9F04704468946154620
:106E0000E668A068871BAF4208D9616888192A46DE
:106E10004946FFF739FB7019E06010E0B846616839
:106E2000881942464946FFF72FFBA5EB070809EBF7
:106E3000070142466068FFF727FBC4F80C80BDE8F5
:106E4000F08702E008C8121F08C1002AFAD1704773
:106E50007047002001E001C1121F002AFBD17047DA
:106E60000146202908DA012088400A4A104008B16A
:106E7000012070470020FCE7402909DAA1F1200039
:106E8000012202FA00F008B10120F2E70020F0E749
:106E90000120EEE7FC06FFBD00BFEFF310810846BE
:106EA00072B67047F8B505460E46D6B9694628460B
:106EB0000AF012F9044643F202018C420AD000BFE4
:106EC000274637B100BF3B4AB1213846FFF7A2F948
:106ED00000BF00BF9DF80000C0F3400000B1F8BD46
:106EE00000BF002128460AF009F90446002C5ED0B4
:106EF000112C5CD00D2C21D12F49304A891AC90898
:106F0000022242EA01402A462D4907F04DF813219A
:106F1000284676DF0446002C49D0204607F056FE6E
:106F200007462549254A891AC908022242EA014032
:106F30002B463A4623A107F043F838E00B2C0BD13F
:106F40001D491E4A891AC908022242EA01402A46FE
:106F50002A4907F029F82AE043F2020084420BD1C3
:106F60001549164A891AC908022242EA01402A46EE
:106F7000234907F019F81AE0204607F027FE0746D4
:106F80000D490E4A891AC908012242EA01402B46DE
:106F90003A461CA107F014F800BF274637B100BFDE
:106FA000044AE0213846FFF735F900BF00BF00BFB3
:106FB00095E700008C67030000760300C8750300A6
:106FC0004463030073645F626C655F6761705F6454
:106FD0006973636F6E6E65637428292072657475BA
:106FE000726E6564202573206F6E20636F6E6E5F16
:106FF00068616E646C652025642E000004640300E3
:10700000B8630300417373657274696E672E2070F4
:107010006D5F636F6E6E5F7365637572652829209F
:1070200072657475726E6564202573206F6E2063BF
:107030006F6E6E5F68616E646C652025642E000063
:1070400070B505460C4605B10CB9002070BD287816
:1070500040082178B0EB510F01D00020F6E706225E
:10706000611C681CFFF73BFA08B90120EEE700201D
:10707000ECE7014601F0030008B901207047002049
:10708000FCE7024650680068401E084008B901202D
:1070900070470020FCE70246002104E0505C08B184
:1070A00001207047491C0629F8D30020F9E710B5E4
:1070B0000346D868884206D88818401E1C69A0423A
:1070C00001D8012010BD0020FCE7000010B50446E7
:1070D0006CB10848C068A04209D806480069A042BF
:1070E00005D3204604F0DFFE08B1012010BD0020CA
:1070F000FCE70000D024002010B50DF01FFD09486A
:107100000078401C0749087008460078052808D117
:1071100000200870044A05490548008801F0BCFABF
:10712000044610BD66220020AC2B0020E82400207D
:107130006022002070B504460D4604F22740FFF798
:10714000AAFF0646012D06D0022D0DD0032D11D029
:10715000042D19D113E0A07928B194F8240010B9B6
:107160000EB1012070BD00BFE07910B10EB1022058
:10717000F8E700BF207A08B10320F3E700BF607A88
:1071800008B10420EEE700BF0020EBE70146481CF1
:10719000052290FBF2F302FB1300C0B270470146D8
:1071A00091F82420012A01D1EE2000E01F20704731
:1071B00010B501220221002001F0D0FB044600BFDF
:1071C0001CB1072C01D0204610BD00BF07220221B0
:1071D000012001F0C3FB044600BF1CB1072C01D005
:1071E0002046F1E700BF0A220021084601F0B6FB65
:1071F000044600BF1CB1072C01D02046E4E700BFC5
:107200000020E1E730B5ABB0AC216846FFF755F997
:1072100002208DF8000001208DF8020006208DF874
:1072200003000120ADF81000184905910121ADF8C7
:107230004C101649149101218DF87C104FF4967171
:10724000229144F25061239101218DF87D104FF479
:1072500061712491002125910D48299069460D48BE
:1072600000F0FDFC044600BF25463DB100BF0AA268
:1072700040F2D9212846FEF7CDFF00BF00BF012113
:10728000044800F0E9FC2BB030BD00006222002071
:1072900015F70200282500202E2E5C2E2E5C2E2EA7
:1072A0005C6D61696E2E630070B50446012C02D1DD
:1072B00002F028FA11E00321084800F072FD0546AB
:1072C00000BF2E463EB100BF05A240F2233130463A
:1072D000FEF7A0FF00BF00BF00BF70BD2825002043
:1072E0002E2E5C2E2E5C2E2E5C6D61696E2E630040
:1072F00070B58CB004460D461646002005E0C0F17E
:107300000F01615C0DF80010401C1028F7D30D210F
:1073100004A8FFF7D2F8002005E02A5CC0F10F03B3
:1073200004A9CA54401C0328F7D3684646DF00204E
:1073300005E0C0F10F0208A9895C3154401C032804
:10734000F7D30CB070BD000010B5044602480178B8
:10735000204600F0ADFE10BDA02300202DE9FE4325
:1073600007460E46144672B600BF06F01DFF00BF6A
:1073700000BF06F081FC0028FBD100BF00BF012F39
:107380000CD06FF48050384498B1B0F5405F2CD0E9
:107390006FF440510844002847D115E03149324A82
:1073A000891AC908012242EA014030A106F0F2FD23
:1073B00047E02C492C4A891AC908012242EA0140B7
:1073C00032A106F0E7FD3CE025462649DFF898C0EB
:1073D000A1EB0C01C9084FF0010C4CEA014034A1AB
:1073E000D5E9003206F0ECFD2BE02546A86807F051
:1073F000EDFB8046D5E900108DE8430019491A4B92
:10740000C91AC908012343EA014043462FA1AA68CB
:1074100006F010FE1349144A891AC908012242EAEB
:10742000014034A106F0B6FD0BE00E490E4A891A60
:10743000C908012242EA0140324633A106F0B4FDF8
:1074400000BF00BF00BF3648006800F0010000B177
:1074500000BE00BF22463146384600F063F8BDE862
:10746000FE83000078760300C8750300534F46542E
:107470004445564943453A20415353455254494F98
:107480004E204641494C454400000000534F4654AD
:107490004445564943453A20494E56414C494420BB
:1074A0004D454D4F52592041434345535300000031
:1074B000415353455254494F4E204641494C45444F
:1074C0002061742025733A25750000004552524F03
:1074D00052202575205B25735D2061742025733A49
:1074E00025750D0A50432061743A203078253038D4
:1074F00078000000456E64206F66206572726F72BE
:10750000207265706F727400554E4B4E4F574E206F
:107510004641554C5420617420307825303858004D
:10752000F0ED00E018B5012300939DF800301E4BEC
:10753000186059609A606FF48043034463B1012B73
:1075400019D1194BDA60DB681B68174CA36123461D
:10755000DB685B68E3610EE0134B1A611B699B6893
:10756000114C636123461B691B68A36123461B6999
:107570005B68E36100BF00BF0B4B1B680A4B5B6895
:10758000094B9B68084BDB68074B1B69064B5B6923
:10759000054B9B69044BDB6972B600BF9DF8003058
:1075A000002BFBD162B618BDE830002010B50248B0
:1075B00002F064F910BD0000D823002010B5034686
:1075C0000C460AB9072010BD19684A61012C01D187
:1075D000012000E0002008610020F4E738B51348DE
:1075E000006800900823582211491248006805F0ED
:1075F000FDF804460CB1204638BD0F4A69460F48D5
:1076000002F042F904460CB12046F5E701210B488F
:1076100002F0E0F901230A4A1946084802F000F98D
:107620000120084908702046E6E70000FC570300E7
:1076300008310020EC570300AB2A0300D8230020B8
:10764000FFFF7F00E42300202DE9F04106460D46B0
:1076500017463446207F10B10020BDE8F081A761B5
:1076600003F016FD401941F10001C4E9020120694F
:1076700000B12561214600200CF038FFEDE770B520
:107680000446254600202877294601200CF02EFFCD
:1076900070BD10B5044620460BF092FB10BD0000F3
:1076A00070B5044625460E488068B0B1ADB9FFF705
:1076B000F3FB06460A4800680A4908600848406823
:1076C0004FF0E021C1F804010020054988601EB98F
:1076D00000BF62B600BF00BF00BF00BF70BD0000AA
:1076E0007031002000E100E0F8B505460C46174671
:1076F0002088001DB84201D90C20F8BD684679DF0A
:10770000064600BF304600B1F7E700BF03202188DE
:1077100068542088401C20801920218868542088C3
:10772000401C208020884119BDF800000DF092F91E
:107730002188084420800020DFE770B505460C460C
:107740002068401C28B1206806F0F8F8206806F090
:107750005FF86068401C18B10021606806F00EF800
:107760002868A169C0F8241500BF617D227D2868C2
:1077700041EA0203C0F86C3500BFD4E90012286862
:1077800007F05DFA207D012814D1A068401C18B1D3
:107790000021A06805F0F2FFE068401C28B1E06815
:1077A00006F0CCF8E06806F033F8D4E90221286846
:1077B00007F02EFA70BD70B505460C462068401CD7
:1077C00028B1206806F0C5F8206806F02DF860683A
:1077D000401C18B10021606805F0DDFF2868A16930
:1077E000C0F8241500BF617D227D286841EA0203AC
:1077F000C0F86C3500BFD4E90012286807F057FACA
:10780000207D012814D1A068401C18B10021A06877
:1078100005F0C1FFE068401C28B1E06806F099F867
:10782000E06806F001F8D4E90221286807F020FAA0
:1078300070BD70B504460D46204604F095FC70BD41
:1078400010B50446637903F003022179208804F01F
:1078500043FC10BD10B50446207918B9204600F04D
:1078600007F803E02046FFF7EBFF00BF00BF10BDA5
:107870002DE9FE4307463E884FF000080022594894
:107880000178304600F02AFC7879C0F3800028B9EE
:107890000021384608F0C6FDBDE8FE8306F580717C
:1078A00088B201AB0122072108F0DCFE0546C5B114
:1078B000284607F08BF981464B494C4A891AC9087A
:1078C000012242EA014033464A46494906F078FB24
:1078D000294630460BF098FD0021384608F0A2FDFD
:1078E000DAE7304603F068FF04464FF6FF718C423A
:1078F0001BD1029803F0B0FE04464FF6FF7084429D
:1079000013D02146304603F035FF3046FFF71CFD0B
:1079100058B930460BF00CFD3046FFF715FD20B985
:107920000021384608F07EFDB6E74FF6FF7084422E
:107930001FD109F0ADF804464FF6FF70844212D112
:1079400029492A4A891AC908012242EA014029A183
:1079500006F020FB042130460BF056FD002138468E
:1079600008F060FD98E72146304603F003FF4FF032
:10797000010806F5807188B22246072108F0FAFE58
:10798000054625B90121384608F04CFD28E0862D32
:1079900007D130460BF0FEFC0121384608F042FDCD
:1079A0001EE0284607F012F981460F490F4A891A4E
:1079B000C908012242EA014033464A461A49009466
:1079C00006F00EFB294630460BF01EFD002138461E
:1079D00008F028FDB8F1000F02D0204603F0D4FED5
:1079E00000BF59E79D23002008760300C8750300F7
:1079F0004C6A0300436F756C64206E6F7420616C79
:107A00006C6F63617465206E657720706565725F69
:107A1000696420666F7220696E636F6D696E67209E
:107A2000626F6E642E000000686B0300002114E09A
:107A30000C48D0F81024012308E000BFD06800797A
:107A4000884201D1002303E0D0680268002AF4D103
:107A500000BF0BB108467047491C0A29E8DB4FF00C
:107A6000FF30F8E7003500202DE9FC410546884647
:107A70001646002437880020308095F82D0058B134
:107A80003A463146404600F04DFB044600BF2046D2
:107A900008B1BDE8FC8100BFA87850B13A46314634
:107AA0004046FFF721FE044600BF204600B1F0E744
:107AB00000BFE87860B1E97848B23B4632464146BB
:107AC00002F01BFE044600BF204600B1E1E700BF04
:107AD000686868B1696891F900003B4632464146E2
:107AE0000CF0E2FD044600BF204600B1D1E700BF24
:107AF000288900280EDD43460622022105F10800F0
:107B0000CDE900670DF016F9044600BF204600B12C
:107B1000BFE700BF288A00280EDD43460722032165
:107B200005F11000CDE900670DF004F9044600BF2F
:107B3000204600B1ADE700BF288B00280EDD43468C
:107B40001522142105F11800CDE900670DF0F2F8B7
:107B5000044600BF204600B19BE700BF286A58B129
:107B60003B4632464146286A01F0E4FB044600BF2A
:107B7000204600B18DE700BF686A58B13B463246E7
:107B80004146686A04F08FFC044600BF204600B1FD
:107B90007FE700BF95F82C0000280BDD3B463246FE
:107BA000414628460BF028FE044600BF204600B19F
:107BB0006FE700BF287858B13B4632464146284619
:107BC00004F061FD044600BF204600B161E700BF3C
:107BD00020465EE7F8B504460E46154600200090A4
:107BE0002B466A463146204600F008F807460FB992
:107BF0000020F8BDBDF800002044FAE7F0B50446C7
:107C00000D461E4604B10AB90020F0BD002103E074
:107C1000605C401C084481B2481CA84206DA108807
:107C20008842F5DC481C205CB042F1D1A94201DB5E
:107C30000020EAE7881C87B2605C10B1605C401EDF
:107C400000E0002083B213B1F818A84201DD002043
:107C5000DBE717801846D8E780F83010704770B51A
:107C600004460D4605B10CB90E2070BD05F1780033
:107C700001F001FB08B90720F7E70020A0702C22D3
:107C800005F17801201DFEF7FFFB002084F830008D
:107C9000D5F8A4006063D5F8A800A0634FF6FF7084
:107CA000A4F8240404F58260C4F82004002140F202
:107CB0002C40C4F82614A4F82A140155207810B9D1
:107CC000FF2084F8540004F15500C4F81004204645
:107CD000FFF765FA40F21441085304F2144204F12C
:107CE00055012846FFF7C0FE064600BF304600B1EA
:107CF000BBE700BF04F231204FF4836108512046F6
:107D0000FFF74DFAA4F81C044FF48360015904F204
:107D10001C4205F13C00FFF7A7FE064600BF3046B7
:107D200000B1A2E700BF012151200155208B81B293
:107D300048200153012084F83C0000212164502098
:107D400001556169616404F13C02002104F15400B1
:107D500072DF064600BF304600B186E700BF012053
:107D60002070304681E770B504460D462E462088C7
:107D7000102804D0112807D026280FD109E0214669
:107D8000304607F08DFD0AE02146304607F035FF0A
:107D900005E02146304608F0F6F800E000BF00BFDD
:107DA00070BD70B504460E46207808B9082070BD35
:107DB000A670002140F22C40C4F82614A4F82A141E
:107DC0000155A07910B1A078012809D0E07910B14F
:107DD000A078012804D0E07970B1A07802280BD1F6
:107DE000606B30B1012084F82D040820616B884756
:107DF00002E0002084F82D0431462046FFF79AF96E
:107E0000A070606BA0B1A078032802D0A0780428ED
:107E10000ED1607960B194F82E0448B9002084F83E
:107E20003004012084F82F040720616B884702E0AA
:107E3000002084F82F04182104F13C00FEF73DFBDC
:107E4000012084F83C0004F12C0009F00BF820B16B
:107E500094F82C105120015502E0012151200155C8
:107E600094F8240060B104F1280008F0FBFF20B171
:107E700094F828105220015502E0012152200155AA
:107E8000002150200155A078052824D2DFE800F019
:107E90001F030A11180004F13C0120460BF04CFDB1
:107EA000054619E004F13C0120460BF02DFD054686
:107EB00012E004F13C0120460BF050FD05460BE0BA
:107EC00004F13C0120460BF077FD054604E000205C
:107ED00084F8310000E000BF00BFA07898B104F141
:107EE0003C0204F15400D4F8201472DF05460DB1B1
:107EF00028465CE794F8301094F8540073DF054688
:107F00000DB1284653E7606B18B194F83100616BEE
:107F1000884700204BE700002DE9F041044600BFF0
:107F200014B90E20BDE8F08100BF1C2221461C4878
:107F3000FEF7AAFA1B481A490860206860B1206859
:107F40007ADF05460DB12846ECE7164821680A6835
:107F500002604968416005E012487BDF05460DB1CB
:107F60002846DFE7002617E006EB86000E4901EB06
:107F7000800700BF4FF6FF70388000BF0B4800EB52
:107F8000461078600A4A0021381DFFF717FB0546A6
:107F90000DB10320C6E7761C002EE5D00020C1E716
:107FA000642C00209C220020502C0020302C00202B
:107FB000614C030010B50446204600F0A5F820B13E
:107FC0002146034804F0B4FC10BD0020FCE700008B
:107FD000902C002070B504460D46164620460CF045
:107FE00089FE08B9002070BD034951F824003246CB
:107FF000294602F011FCF6E79C2C002010B504463F
:10800000204600F081F820B12146034804F090FC9E
:1080100010BD0020FCE70000982C002010B504469D
:10802000204600F071F820B12146034804F080FC9E
:1080300010BD0020FCE70000942C002070B5044621
:108040000025204600F060F850B12146054804F0B4
:108050006FFC06460EB1022000E00120054600BF7D
:10806000284670BD8C2C002070B5044600252046A3
:1080700000F04AF850B12146054804F059FC064684
:108080000EB1022000E00120054600BF284670BD69
:10809000882C002010B51821044804F019FC04466F
:1080A000182C00D110BDE0B2FCE70000802C0020AD
:1080B00070B505460C4620460CF01CFE50B1284613
:1080C00000F022F830B1044901EB8400294604F0A5
:1080D0002FFC70BD0020FCE79C2C002070B50546ED
:1080E0000C46164620460CF005FE50B1284600F01E
:1080F0000BF830B1034901EB84003246294602F007
:10810000EDFA70BD9C2C002010B50446142C01DB48
:10811000002010BD2146024804F00AFCF9E70000E7
:10812000842C00202DE9FC4105460C46174620888A
:108130000930B84202D90C20BDE8FC8168466DDFE9
:10814000064600BF304600B1F6E700BF0820218890
:1081500068542088401C20801B2021886854208877
:10816000401C208020882844DDF801100160BDF803
:10817000051081802088801D20809DF80000400827
:1081800018B900202188685402E001202188685431
:108190002088401C20800020CEE70000F8B505466E
:1081A0000F4600242888212845D004DC102812D04E
:1081B000112878D104E03B285AD05628F9D173E031
:1081C0004849494A891AC908032242EA014047A19D
:1081D00005F0E0FE84E04349434A891AC9080322B6
:1081E00042EA014045A105F0D5FE072000F0E4FB7E
:1081F000044600BF26463EB100BF43A24FF4FE71C5
:108200003046FEF707F800BF00BFA8884249088043
:1082100008460188414804F03FFD044600BF264659
:108220003EB100BF38A240F2FF113046FDF7F2FF29
:1082300000BF00BF54E02B492B4A891AC908042209
:1082400042EA014036A105F0A5FE00200090A88872
:1082500069468FDF044600BF26463EB100BF2AA212
:1082600040F20B213046FDF7D5FF00BF00BF37E0DD
:108270001C491D4A891AC908042242EA01402DA15D
:1082800005F088FEA888132176DF044600BF264645
:108290003EB100BF1CA240F213213046FDF7BAFFE9
:1082A00000BF00BF1CE01AE00E490F4A891AC90836
:1082B000042242EA014025A105F06CFEA8881321A2
:1082C00076DF044600BF26463EB100BF0EA240F254
:1082D0001B213046FDF79EFF00BF00BF00E000BF3E
:1082E00000BFF8BD78760300C87503004469736366
:1082F0006F6E6E65637465642E000000436F6E6E72
:1083000065637465642E00002E2E5C2E2E5C2E2E6E
:108310005C6D61696E2E6300602200201C250020C8
:108320005048592075706461746520726571756577
:1083300073742E004741545420436C69656E742059
:1083400054696D656F75742E0000000047415454E8
:10835000205365727665722054696D656F75742E51
:108360000000000070B505460E462888102802D08F
:1083700011282CD115E01748006860B901F0DAF82F
:10838000044600BF34B11448006818B120461249B1
:108390000968884700BF0F480068401C0D49086005
:1083A00016E00C480068401E0A490860084600684C
:1083B00060B9FEF7FDFE044600BF34B10648006810
:1083C00018B1204604490968884700BF00E000BF93
:1083D00000BF70BD982200209422002070B5044692
:1083E0000D462088102806D0112808D012280ED05B
:1083F000502810D107E0204607F01AFA0CE020467A
:1084000007F0E2FB08E0204607F002FE04E0204609
:1084100007F0F6F900E000BF00BF70BD2DE9F041A4
:1084200004460F46A6882088102806D0112819D0A7
:1084300019283FD01A284AD118E00AF091FA30469C
:108440000AF002F930B900BF22A2F0210420FDF7A2
:10845000E1FE06E0E07B022803D131462C4804F01F
:1084600076FA34E030460AF09FFA30E0207A0509C7
:10847000042D01DB012000E00020024631462448A3
:108480000C3002F02BF9032D01DB012000E000206D
:10849000024631461E48083002F020F9022D01DB69
:1084A000012000E00020024631461948001D02F07C
:1084B00015F90CE0207A48B9607AC0F3C0052A4665
:1084C000314613480C3002F009F900BF00BF00BF6D
:1084D000BDE8F0812E2E5C2E2E5C2E2E5C2E2E5CA6
:1084E0002E2E5C2E2E5C636F6D706F6E656E7473D6
:1084F0005C626C655C636F6D6D6F6E5C626C655F1A
:10850000636F6E6E5F73746174652E6300000000AC
:108510008C2C002070B504460D4600BF074800783B
:1085200000B970BD00BF204603F000F820460BF0F4
:1085300033FB204602F08CFB00BFF2E7D82200207C
:1085400070B58EB004460E463068E061514B0FCBDB
:1085500001AD0FC504F11A0101A862DF054600BF95
:10856000284608B10EB070BD00BFA07E8DF8360061
:1085700041F22350ADF8340022460DA90120A8DFB6
:10858000054600BF284600B1ECE700BF202105A842
:10859000FDF793FF41F22450ADF81400A07E8DF852
:1085A00016000120ADF81A00ADF818009DF8210062
:1085B00020F00200801C8DF821009DF8210020F0A1
:1085C000100010308DF8210001208DF825008DF865
:1085D0002700208804F10A0205A900F003FD0546E2
:1085E0000DB12846BEE7202105A8FDF766FF41F240
:1085F0002650ADF81400A07E8DF816000F20ADF8BF
:108600001A00ADF818009DF8210020F00200801C2F
:108610008DF821009DF8210020F0100010308DF819
:10862000210001208DF825008DF82700208804F115
:10863000120205A900F0D6FC05460DB1284691E7C7
:10864000202105A8FDF739FF41F22550ADF81400AF
:10865000A07E8DF816000120ADF81A00ADF81800C4
:108660009DF8210020F00200801C8DF821009DF86B
:10867000210020F0080008308DF8210001208DF83D
:1086800025008DF826002088A21C05A900F0AAFC70
:1086900068E7000010550300F0B585B004460D46AC
:1086A00016460F2000904FF6FF70844213D0002032
:1086B000019002900390049001208DF80600688AD2
:1086C000ADF804000496CDF80CD001A92046AEDF29
:1086D00080B205B0F0BD0827B8B2FAE770B504461D
:1086E0000D462E462088502804D12146304607F0FA
:1086F0007BFC00E000BF00BF70BD70B504462046A3
:108700000CF0A2F9054605F0010070BD38B506F081
:10871000FDF8044600BF25463DB100BF15A240F25A
:108720002E212846FDF776FD00BF00BF00200090F7
:108730006946012005F008FF044600BF25463DB10B
:1087400000BF0CA240F233212846FDF763FD00BFB5
:1087500000BF684605F0A8FF044600BF25463DB1AE
:1087600000BF04A240F237212846FDF753FD00BFA9
:1087700000BF38BD2E2E5C2E2E5C2E2E5C6D6169E6
:108780006E2E630001460148405C70474C55030063
:1087900010B502460949885C00BF4FF0A04421464D
:1087A000D1F80435012484409C43C1F808450124D4
:1087B00084401C40C1F80C4500BF10BD4855030063
:1087C00010B504460249085D012105F0E9F810BD25
:1087D0004855030010B504460249085D002105F024
:1087E000DFF810BD4855030010B50146094B585C31
:1087F00000BF4FF0A044234600BFD3F80445C44057
:1088000004F001040CB1012000E00020024682F0D7
:10881000010010BD4855030010B5002403E02046B8
:10882000FFF7CEFF641C042CF9D310BD10B5002453
:1088300003E02046FFF7CEFF641C042CF9D310BDE3
:1088400002464FF0FF30002106E0054B5B5C93428F
:1088500001D1084602E0491C0429F6D300BF704745
:108860004C55030010B5002000F07AFA044600BF12
:108870001CB1062C01D0204610BD00BF012000F025
:108880006FFA044600BF1CB1062C01D02046F3E766
:1088900000BF0020F0E700002DE9F04106460F463A
:1088A0004FF0000800243046FFF7CAFF0446042CAE
:1088B0003ED20FB3012F02D0022F38D130E004EBAB
:1088C0004400214911F8008004EB4400084440783A
:1088D00050B11E4A4FF480411D480068FEF7B4FEB7
:1088E00005460DB91948067004EB440016490844C2
:1088F0008078184908551AE015480068FEF7BFFE51
:108900001448005D04EB44010F4A11448978884201
:1089100005D104EB44001146084490F8028006E0BB
:1089200004EB44000849084490F8018000BF00BFF0
:10893000B8F1000F06D00848006818B14046064953
:1089400009688847BDE8F081002C00208C220020B7
:10895000585503008D2200208822002030B50346A0
:108960000020042B23D2012A07D1012903D103F1CE
:108970000E04E4B200E00024224679B1012902D0BD
:10898000022911D104E003EB43040A4D2A550DE0FE
:1089900003EB4304074D2C44627007E003EB4304F0
:1089A000044D2C44A27001E0072000BF00E0072026
:1089B00030BD0000002C002070B50446002505489D
:1089C000007800F0010018B1204600F005F80546D7
:1089D000284670BD802200202DE9F047044600267D
:1089E0000025DA48007820B10020D849087003F04B
:1089F000C9FA182C7ED2DFE804F00C16174A7EB2B2
:108A0000F6F4F3F2F1F0EFEEEDECEBEAE9E8E7E68D
:108A1000E5E403F0B7FACE480068FEF730FE0646FC
:108A2000CC4804708DE100BF0020FFF7DDFE58B197
:108A30000020FFF7C5FE022C02D14FF4E16001E0F7
:108A40004FF47A60054609E00020FFF7C3FE022CD0
:108A500001D1C82001E04FF4C8700546BD4804703C
:108A60004FF40040A5FB00104FF47A73CF1840F18B
:108A700000015A0000233846FDF7C2FC814600225F
:108A80004946B3480068FEF7DFFD064659E100207D
:108A9000FFF7AAFE58B10020FFF792FE032C02D187
:108AA0004FF4487001E04FF47A60054609E0002079
:108AB000FFF790FE032C01D1C82001E04FF4C870ED
:108AC0000546A44804704FF40040A5FB00104FF485
:108AD0007A728F1840F10001520000233846FDF7EA
:108AE0008FFC81460022494699480068FEF7ACFD9C
:108AF000064626E124E10020FFF776FE58B100206B
:108B0000FFF75EFE042C02D14FF47A6001E04FF4CF
:108B10007A6005460AE00020FFF75CFE042C02D1D3
:108B20004FF4C87001E04FF4C870054689480470DE
:108B30004FF40040A5FB00104FF47A73CF1840F1BA
:108B400000015A0000233846FDF75AFC81460022F6
:108B500049467F480068FEF777FD0646F1E00020B1
:108B6000FFF742FE50B10020FFF72AFE052C01D18D
:108B7000C82001E04FF47A60054609E00020FFF7C5
:108B800029FE052C01D1C82001E04FF4C87005462C
:108B9000704804704FF40040A5FB00204FF47A7336
:108BA000D71840F100015A0000233846FDF728FC91
:108BB00081460022494666480068FEF745FD0646A4
:108BC000BFE0B8E0B6E0AAE0A1E098E092E05FE0A4
:108BD0005DE05BE059E057E051E042E033E024E043
:108BE00015E00EE0FFE70020FFF7D2FD59480470C2
:108BF000002240F2666156480068FEF725FD0646F1
:108C00009FE00020FFF7E6FD5248047099E0012044
:108C10004E490870FFF7BCFD002240F266614C48E7
:108C20000068FEF711FD06468BE0012047490870F9
:108C3000FFF7AEFD00224FF4005145480068FEF7F3
:108C400003FD06467DE0012040490870FFF7A0FDC6
:108C5000002240F266613E480068FEF7F5FC0646D9
:108C60006FE0012039490870FFF792FD00224FF4B0
:108C7000005137480068FEF7E7FC064661E0FFF761
:108C8000D5FD344804705CE000BF00BF00BF00BFEA
:108C900031480068FEF7F3FC0646C4F1110515B330
:108CA0000EBB012D18D9A8B2C82148434FF400418A
:108CB00080FB01104FF47A728F1840F100015200CE
:108CC00000233846FDF79CFB814600224946224896
:108CD0000068FEF7B9FC06460220FFF77BFD012085
:108CE0001E49087005E00220FFF76AFD00201B49BD
:108CF000087026E003F046F91648047021E003F0FE
:108D000041F90020FFF766FD1248047019E003F0F6
:108D100039F90120FFF75EFD0E48047011E003F001
:108D200031F90020FFF756FD0120FFF753FD0948F8
:108D3000047006E000BFFFF779FD0648047000E00C
:108D400000BF00BF3046BDE8F08700007D22002054
:108D5000505503007C22002054550300842200203B
:108D600010B50446012120460CF076F810BD000035
:108D70002DE9FC4704460D461646A71C4FF0010896
:108D80000020019001A8FEF784FC3048406828606C
:108D90002E4840682D498968411A2D480068401CBA
:108DA000A0EB010915E001212A4803F0F4FD03F0CE
:108DB000F7FA82465146274803F0EDFD2348406804
:108DC00022498968411A22480068401CA0EB010929
:108DD00000BF4F45E7D8B8F1000F30D00021009117
:108DE00076B1009921F00301491C0091009921F00E
:108DF0000401091D0091009964F3891100910DE0AF
:108E0000009921F00301891C0091009921F00401CF
:108E1000091D0091009964F39F5100910B49496825
:108E20000B4A12681140094A0C3202EB810000998A
:108E300001600649496839440C3A516000BF9DF809
:108E40000400FEF72DFC4046BDE8FC8700350020FD
:108E5000842400201C39002070B504460D460A2DDC
:108E600003D10D212046FFF7F7FFA168481CA06041
:108E700020684554D4E90110884202D3204604F00A
:108E800064F870BD0448806803494968884201D18C
:108E9000012070470020FCE7003500207CB5044627
:108EA000204602F089FC054600236A46092107F0A6
:108EB00037FD052805D10122024801782046FFF739
:108EC0000DF97CBDB42200207CB504460E4600207E
:108ED000019042F6A620ADF8040001208DF80600AE
:108EE0000748006800906A4601A92046A0DF0546B1
:108EF0002DB90122034801782046FFF7EFF87CBD29
:108F0000C0550300B522002001468879012809D107
:108F10000879012806D1488842F60212904201D110
:108F2000012070470020FCE74FF0FF31054A42F86E
:108F30002010082804DBFF23A0F108015432535409
:108F400070470000F42F00200146024850F821002D
:108F500070470000F42F00202DE9F04F03460C4627
:108F60004FF0FF390AB1002000E0082084460AB122
:108F7000082000E00D208046614624E0154850F8A6
:108F80002100401CF0B91D460846274616464FFAF8
:108F900080FBDFF840A00AF1340A0AF805B0DFF8D8
:108FA00034A04AF820704EB94FFA85FBA0F1080AA8
:108FB000DFF820E00EF1540E0EF80AB000BF4FFAB1
:108FC00081F902E0491C4145D8D300BF4846BDE8BD
:108FD000F08F0000F42F00200146014840567047F2
:108FE0002830002070B590B006460C461546A07893
:108FF00018B901208DF80E0002E0A0788DF80E005F
:109000002088ADF80C0000200290607C02A90AF0D4
:1090100001FDA07C0DF109010AF0FCFCE07B08B128
:10902000012000E000209DF80A1060F3C3018DF8D4
:109030000A10207C08B1012000E000209DF80A10F1
:1090400060F304118DF80A10207B08B1012000E0C4
:1090500000209DF80A1060F300018DF80A10207DB1
:1090600008B1022000E001209DF80A1060F34201DF
:109070008DF80A101C2109A8FDF71FFA607BC0F3C8
:10908000001018B9607BC0F34010F8B100200090C8
:10909000E07C0DF101010AF0BDFC00BF9DF800006D
:1090A00020F00F00401C8DF800009DF8000020F01B
:1090B000F00010308DF8000000BF9DF8020020F095
:1090C0000600801C8DF80200CDF838D0607B8DF84A
:1090D0002400A07B8DF82500142104A8FDF7EDF9EC
:1090E00003A8049002A80590A088ADF81C00A06811
:1090F00020B1E088ADF81800A0680890A0690028A9
:1091000049D000200190A0690088ADF82C00A0692A
:109110004088ADF82E00A06940680A9001A80D9023
:10912000A169087B01A90AF075FCA169487B0DF1D2
:1091300005010AF06FFCA069807A08B1012000E007
:1091400000209DF8061060F3C3018DF80610A06999
:10915000C07A08B1012000E000209DF8061060F3FD
:1091600004118DF80610A069007A08B1012000E012
:1091700000209DF8061060F300018DF80610A0692C
:10918000807B08B1022000E001209DF8061060F30A
:1091900042018DF80610E06908B1E0690C902B4699
:1091A00004AA09A93046AADF10B070BD2DE9F0412C
:1091B00004460D464FF6FF76304684420AD14FF4FE
:1091C0008071284603F084FB86B2B6F5807F10D10B
:1091D00026460EE0FF2C0CDC2146284603F061FBFE
:1091E00080F001070FB1204601E04FF6FF70064600
:1091F00000BF3046BDE8F08170B505460DB9094C99
:1092000001E0084C083409E0204602F054FE06460E
:1092100006B904E028467168884700BFF4E700BF3C
:1092200070BD0000E82F002010B504462CB90120C5
:10923000064948700020FFF7DFFF012C04D1012010
:1092400002498870FFF7D8FF10BD0000E02F002012
:109250002DE9F047024613468C46D3E90245DCE986
:109260000267B6EB040877EB050002D30120BDE8E6
:10927000F0870020FBE701468878012805D191F8A6
:109280002000012801D100207047886A042802D0FC
:10929000486A042801D10020F6E70120F4E733B53D
:1092A0008BB00546002000900C9878B100240BE0AC
:1092B00021460CA803F03CFB28B1009A501C0090FA
:1092C00001A820F81240641C142CF1D32C2269460A
:1092D0002846FDF7D9F80DB030BD014608880628AC
:1092E00008DB0888B0F5486F06DD08884FF6FF7286
:1092F000904201D0072070474888062808DB48883C
:10930000B0F5486F06DD48884FF6FF72904201D0F5
:109310000720F0E708884FF6FF72904208D048888F
:10932000904205D008884A88904201DD0720E2E794
:109330000020E0E72DE9F04107460D461446984627
:109340002088801D404502D90C20BDE8F0813846B8
:10935000FFF7C3FF064600BF304600B1F5E700BF88
:109360000520218868542088401C208012202188F4
:1093700068542088401C20802288511938880BF0BE
:1093800069FB2188084420802288511978880BF0D5
:1093900061FB2188084420800020D6E710B50446F0
:1093A00000BF04A240F291112046FCF733FF00BF3A
:1093B00010BD00002E2E5C2E2E5C2E2E5C6D616981
:1093C0006E2E630030B587B01C216846FDF775F836
:1093D000002000904FF4A03001904FF4F020029054
:1093E00003208DF80C000020ADF80E008DF8100061
:1093F0000A4805900A4806906846FEF78DFD044627
:1094000000BF25463DB100BF06A24FF4D4712846E7
:10941000FCF700FF00BF00BF07B030BDC1F702007E
:109420009D9302002E2E5C2E2E5C2E2E5C6D6169AB
:109430006E2E6300F8B505460C46607A88B9207A2E
:1094400010B91048476801E00E4887682A46394637
:109450006068FEF7F9F8064616B1304609F07AFF63
:109460000EE0002020720748406948B101208DF8C5
:109470000000ADF80250034841696846884700BFC4
:10948000F8BD0000642C0020F0B585B004460D4600
:1094900017461E4614220B496846FCF7F5FFADF847
:1094A00002408DF80850ADF80A708DF80C6000226B
:1094B000054801782046FEF711FE684600F05AFE86
:1094C00005B0F0BDE85603009D23002010B586B01E
:1094D0000446208806F05CFF00BB2088FEF76AFD8A
:1094E00030B92088012241F2060100F058FB15E056
:1094F000208800220A490978FEF7F0FD02208DF845
:1095000004002088ADF8060000208DF80C00002132
:109510008DF80D1001A800F02DFE00BF06B010BDA3
:109520009D23002070B504460D4629462046FDF7D0
:10953000B9FC70BD10B5012200210846FFF70EFAF4
:10954000044600BF1CB1072C01D0204610BD00BF4F
:10955000072202210120FFF701FA044600BF1CB1D7
:10956000072C01D02046F1E700BF04220221002091
:10957000FFF7F4F9044600BF1CB1072C01D02046C8
:10958000E4E700BF0020E1E72DE9FF4105460C4676
:1095900029492A4A891AC908042242EA01402B466D
:1095A000224627A104F00CFD002002900390ADF8A4
:1095B0000840ADF80A40009001906A4602A928468A
:1095C00090DF0646002E32D0304605F0FFFA0746FF
:1095D00019491A4A891AC908012242EA01403B4640
:1095E0002A46234904F0ECFCBDF8000010B9BDF890
:1095F000020068B1BDF80230BDF800200E490F4FDF
:10960000C91BC908012747EA01401AA104F0D8FC88
:10961000BDF8040058B1BDF804200749074BC91A2A
:10962000C908012343EA0140224904F0BDFC304649
:1096300004B0BDE8F0810000E0750300C8750300C8
:109640005570646174696E672064617461206C6533
:109650006E67746820746F202575206F6E20636FAD
:109660006E6E656374696F6E20307825782E000009
:10967000245F0300546865207265717565737465B5
:10968000642054582F5258207061636B6574206CAD
:10969000656E67746820697320746F6F206C6F6EDD
:1096A000672062792025752F2575206F6374657496
:1096B000732E0000705F03002DE9F04105460F4650
:1096C0000F4C0121204603F09DF9064600BF00BF64
:1096D00000BF00BFBFF35F8F00BF00BF00BF0EB968
:1096E000012000E0002040B1284602F0ABFD08B1A7
:1096F000BDE8F081024804F071FE00BFF8E7000009
:10970000AC22002070B50D490D4A891AC908032200
:1097100042EA01400BA104F03DFC08F019FC0446AC
:1097200000BF25463DB100BF0AA240F2692128468C
:10973000FCF770FD00BF00BF70BD0000787603002D
:10974000C8750300457261736520626F6E64732192
:10975000000000002E2E5C2E2E5C2E2E5C6D6169AA
:109760006E2E630070B506460D4616B14FF40640E6
:1097700070BD287920B1012809D0022815D111E047
:1097800002202871284608F0BDFF044610E0284654
:1097900000F056FF044648F20960844201D141F6C8
:1097A0001D5405E041F61D5402E048F20E6400BF6E
:1097B00000BF2046DCE770B5044620793D2802D181
:1097C00041F23D0001E04FF4885005462088002218
:1097D000294602F081FC70BD10B50021034803F05A
:1097E00011F9044684F3100010BD00001C3900205C
:1097F00070B505460C464FF4803000FA04F1284657
:1098000000F03EFC70BD70B505460C464FF4A070EC
:1098100000EB840086B23146284600F051FC70BD52
:109820002DE9F04704460D4616461F464FF480309A
:1098300000FA05F84FF4A07000EB85001FFA80F9DC
:1098400026F07F464146206804F068FE41462068C5
:1098500004F05EFE4946206804F053FE3246294675
:10986000206804F045FE4146206804F054FE1FB114
:109870004146206804F055FEBDE8F08710B5044667
:10988000206804F03AFE10BD2DE9F04704460D466D
:1098900017466079324941F820706079314901EB0F
:1098A000C000007968B108262F49304A891AC908D2
:1098B000022242EA01402EA104F06CFB3046BDE8D2
:1098C000F08729882068C0F8081500BF94F90420A3
:1098D000AB7810461946002808DB4FEA417C4FEA76
:1098E0001C68DFF8B0C00CF800800BE04FEA417C48
:1098F0004FEA1C69DFF8A0C000F00F08A8F10408C7
:109900000CF8089000BF00BF94F904100846002826
:109910000DDB00BF00BF00F01F0301229A40430986
:109920009B0003F1E023C3F8002100BF00BF00BF8C
:1099300000BF012061790B4A02EBC1010871607917
:10994000114641F8304000260749084A891AC908DB
:10995000032242EA014011A104F01CFB3046AEE7AD
:10996000FC2300200024002058760300C875030063
:1099700052544320696E7374616E636520616C722A
:109980006561647920696E697469616C697A65647E
:109990002E00000000E400E018ED00E05254433ACD
:1099A00020696E697469616C697A65642E000000D3
:1099B00010B5014691F90400002807DB00F01F03F1
:1099C00001229A40024B440943F8242000BF10BDF5
:1099D00000E200E070B505460C462246022128460A
:1099E00000F05AFB70BD10B504464FF4827120465A
:1099F00000F066FB10BD10B504460021206804F09D
:109A000093FD10BD10B504460421206804F08CFDC0
:109A100010BD2DE9F84F04468846154699464FF487
:109A2000803000FA08FA4FF4A07000EB88001FFAAB
:109A300080FB25F07F455146204600F021FB206841
:109A400004F05BFD06464146206804F04BFD0090A3
:109A500032464146206804F04BFD5946206804F028
:109A600050FD314600980AF0BBFC012806D11020B9
:109A700005F060F95946206804F043FD206804F0C1
:109A80003CFD0646314628460AF0AAFC07465146E8
:109A9000206804F040FD012F0FD16A1C4146206868
:109AA00004F026FD102005F045F9206804F025FD9E
:109AB000B04225D00D20BDE8F88F2A4641462068E7
:109AC00004F016FD206804F018FD0646681E3146B5
:109AD0000AF086FC07466FF07F40A0EB0900B84211
:109AE00001D20D20E7E75FB96A1C4146206804F007
:109AF000FFFC206804F001FDB04201D00D20DAE740
:109B000001225146204600F0C7FA0020D3E710B5E5
:109B100001210846FCF7DEFD0A2003F041F9E021AF
:109B20000220FCF7D7FD642003F03AF9102103204E
:109B3000FCF7D0FD642003F033F900210420FCF78A
:109B4000C9FD642003F02CF900210520FCF7C2FDBB
:109B5000642003F025F92F210620FCF7BBFD0A2025
:109B600003F01EF90F210720FCF7B4FD642003F079
:109B700017F902210920FCF7ADFD642003F010F96C
:109B800003210A20FCF7A6FD642003F009F90C214B
:109B90000B20FCF79FFD642003F002F910BD70B5A7
:109BA00006460C4615462B46224600213046FFF756
:109BB0006BFC70BD2DE9F84305460E4617469846E6
:109BC00069461048006802F025FE044614B90420D6
:109BD000BDE8F8831C212046FCF76FFC01202071B2
:109BE0002560C4F8088008480068B6FBF0F0E06023
:109BF000676169460348006802F036FE08F092FC8F
:109C00000020E5E79C5803009058030010B5044677
:109C1000D4E90321501828DF10BD00001348007854
:109C2000062820D11148001D007800F00F00D0B99F
:109C30000E480830007800F0F000302801D10120F3
:109C400070470A480830007800F0F000402801D141
:109C50000120F5E705480830007800F0F0005028B2
:109C600001D10120ECE70020EAE70000E00F00F05E
:109C700013480078062820D11148001D007800F014
:109C80000F00D0B90E480830007800F0F0003028FE
:109C900001D1012070470A480830007800F0F00038
:109CA000402801D10120F5E705480830007800F090
:109CB000F000502801D10120ECE70020EAE7000085
:109CC000E00F00F013480078062820D11148001D4D
:109CD000007800F00F00D0B90E480830007800F08E
:109CE000F000302801D1012070470A480830007880
:109CF00000F0F000402801D10120F5E705480830C8
:109D0000007800F0F000502801D10120ECE700209D
:109D1000EAE70000E00F00F00A48007806280ED1BC
:109D20000848001D007800F00F0040B905480830D1
:109D3000007800F0F000302801D1012070470020A9
:109D4000FCE70000E00F00F006480068062806D196
:109D50000448001D0068062801D10120704700203A
:109D6000FCE700003001001013480078062820D1DD
:109D70001148001D007800F00F00D0B90E480830DF
:109D8000007800F0F000302801D1012070470A4827
:109D90000830007800F0F000402801D10120F5E7FC
:109DA00005480830007800F0F000502801D101206B
:109DB000ECE70020EAE70000E00F00F00A48007836
:109DC00006280ED10848001D007800F00F0040B9A9
:109DD00005480830007800F0F000302801D101205B
:109DE00070470020FCE70000E00F00F01348007807
:109DF000062820D11148001D007800F00F00D0B9CE
:109E00000E480830007800F0F000302801D1012021
:109E100070470A480830007800F0F000402801D16F
:109E20000120F5E705480830007800F0F0005028E0
:109E300001D10120ECE70020EAE70000E00F00F08C
:109E40000A48007806280ED10848001D007800F066
:109E50000F0040B905480830007800F0F0003028C5
:109E600001D1012070470020FCE70000E00F00F066
:109E70000A48007806280ED10848001D007800F036
:109E80000F0040B905480830007800F0F000302895
:109E900001D1012070470020FCE70000E00F00F036
:109EA0000A48007806280ED10848001D007800F006
:109EB0000F0040B905480830007800F0F000502845
:109EC00001D1012070470020FCE70000E00F00F006
:109ED0000278072A38D2DFE802F037040712222B73
:109EE000340000220A7030E001220A7003898B815D
:109EF0008388CB81C2688A6000230B7425E002222C
:109F00000A7003898B818388CB81C2688A60827DD5
:109F1000062A01D1012300E000230B7415E003227F
:109F20000A70C3888B810389CB81C2688A600CE088
:109F300004220A70C3888B810023CB8100228A60AF
:109F400003E005220A7000E000BF00BF7047000078
:109F500070B50546002409E0064850F8240020B1F9
:109F6000044850F8241028468847641C042CF3D376
:109F700070BD00007C31002030B587B004460D462E
:109F80002068806808B907B030BD182101A8FCF727
:109F900094FA0295A0680690207910B1012815D195
:109FA00009E001208DF8040020690390E068049026
:109FB000606905900BE002208DF804000749E06815
:109FC0000968484303906069059000E000BF00BF46
:109FD0002068816801A8884700BFD4E79058030033
:109FE000F0B585B005460C461646002C3ED0112C27
:109FF0003CD0082C3AD00D2C24D11D491D4A891A79
:10A00000C908022242EA01402A461B4903F0CCFF5C
:10A010002A460321684602F0ABFB2EB1307800F0EF
:10A02000010008B1012000E002208DF808000021A5
:10A030008DF80C1041F20111ADF80A10684600F0DD
:10A04000ADF813E0204604F0C1FD07460849094A6F
:10A05000891AC908012242EA01402B463A460749BB
:10A0600003F0AEFF2146284609F0E2F905B0F0BD45
:10A0700010760300C8750300246C0300346D0300E0
:10A0800070B504460D462946206804F041FA294679
:10A09000206804F043FA70BD70B504460E461546BC
:10A0A0003146206804F037FA1DB13146206804F0CB
:10A0B00038FA70BD10B50446204600F06FF810BDA8
:10A0C00070B505460C462868015929B12146286813
:10A0D00004F017FA012070BD0020FCE770B50446BB
:10A0E000608801F069FBA080002505E0044850F875
:10A0F0002510204688476D1C002DF7D070BD00004C
:10A10000A422002070B50446A08801F085FA608082
:10A11000002505E0044850F82510204688476D1CAE
:10A12000002DF7D070BD0000B822002070B50546A4
:10A13000002405E0044850F8241028468847641C91
:10A14000022CF7D370BD00000056030070B5054621
:10A15000002405E0054850F8241028468847641C70
:10A16000034800788442F5DB70BD0000942F002086
:10A17000E622002070B50446608801F01DFBA08037
:10A18000002505E0044850F82510204688476D1C3E
:10A19000002DF7D070BD0000A856030070B505462D
:10A1A000002405E0044850F8241028468847641C21
:10A1B000002CF7D070BD00002057030010B586B00A
:10A1C0000446142101A8FCF778F9A08900F052FA9E
:10A1D000ADF80800207806285ED2DFE800F05D03C5
:10A1E00004052E4A00BF00BFA08900F048FA18B944
:10A1F000E08908F0A8FBF8B1E08908F0A1FB8DF830
:10A200000C002078032801D1012100E000218DF805
:10A210000D10A1680491606830B908208DF8040021
:10A2200001218DF8141004E009208DF80400616804
:10A23000059101A806F0C0FA2FE0A08900F01FFAEE
:10A24000B0B1E089A0B9606838B90A208DF804007F
:10A25000BDF8080006F000FD04E00B208DF80400B6
:10A260006068039001201149087001A806F0A4FA63
:10A2700013E0606818B913208DF8040004E014207E
:10A280008DF80400606803904FF6FF70ADF8080089
:10A2900001A806F091FA00E000BF00BF0348007873
:10A2A00008B106F01FFC06B010BD0000C52200205A
:10A2B00038B505461048007810B948F2016038BD3D
:10A2C0004FF6FF70854202D148F20360F7E7684617
:10A2D00008F008F8044614B948F20760EFE70520D3
:10A2E000207001202071E580684608F00BF808F026
:10A2F0000DF90020E3E700000824002038B50E48DF
:10A30000007810B948F2016038BD684607F0EAFFEE
:10A31000044614B948F20760F6E706202070684644
:10A3200007F0F0FF0548007810B1012003490873D9
:10A3300008F0ECF80020E7E7082400205032002065
:10A3400070B586B0142101A8FCF7B7F82E48007844
:10A3500028B101A8FFF7FCFD002006B070BD2A4817
:10A36000001D02F011FB08B10020F6E700F046FAEC
:10A3700006460EB13046F0E707F0F0FF05F050FF5B
:10A38000054625B1022D03D0062D0ED103E000BFF6
:10A3900048F20A60E1E701201B490870002048608C
:10A3A00001A8FFF7D5FD0020D7E700BF00BF684632
:10A3B00007F098FF044614B948F20760CDE7012082
:10A3C00020700C2D16D2DFE805F0150615071511C3
:10A3D0001512150A0E0B00BF002020710BE000BF04
:10A3E0000320207107E00220207104E000BF01205B
:10A3F000207100E000BF00BF684607F083FF08F04F
:10A4000085F80020A9E700000824002038B504469C
:10A4100014B948F2046038BD6946204608F090F946
:10A4200008B3BDF8000000EB8000114901EB80008B
:10A43000C068A8B1A07A98B1BDF8000000EB800018
:10A4400001EB8000C068401EBDF8001001EB8101E7
:10A45000074A02EB8101C8600020A072002504E0D9
:10A4600048F2056501E048F209652846D3E7000097
:10A47000283200207FB514461D462B46224601A9EE
:10A48000684608F0F5F804B070BD37B50C461546BF
:10A490002B4622466946002008F0EAF83EBD37B553
:10A4A0000C4615462B4622460021684608F0E0F887
:10A4B0003EBD024602B111B948F20460704710680F
:10A4C00008600020FAE70000F8B504460D4604B124
:10A4D00015B948F20460F8BD6946204608F030F925
:10A4E000A0B16668BDF8001001EB8101094A02EBDA
:10A4F000810101F10C00012102F04DFA2E6060682B
:10A500000C3068600120A0720020E4E748F2096086
:10A51000E1E700002832002070B504460D4614B96A
:10A5200048F2046070BD03230022294620460AF049
:10A530008BFEF7E770B504460D460223002229463C
:10A5400020460AF081FE70BD70B5054609480068D6
:10A55000042802D148F20B6409E00748054909685C
:10A5600040F821500121034802F015FA002420464A
:10A5700070BD0000142400207C3100202DE9F84338
:10A5800004464FF4806800262B48007818B948F23A
:10A590000160BDE8F88314B948F20460F9E71221BC
:10A5A0002046FBF78AFF0320208000253FE005EBD3
:10A5B0008500224901EB8000008905EB85011F4AD7
:10A5C00002EB81014989084487B205EB850102EB62
:10A5D0008101486805F0A0FD032802D12088401EB3
:10A5E0002080608805EB8501144A02EB8101C9686F
:10A5F00008446080208905EB850102EB81014989CF
:10A6000008442081608938446081C7F5806086B243
:10A61000A089B04200DAA68104F11000831EA21DB9
:10A62000211D0090284608F0E1F9681C85B2022D32
:10A63000BDDB0020ADE70000082400202832002008
:10A640003EB504460A4B6A460021A01D08F010F8EA
:10A65000054635B9064A9188019808F0EBF8054699
:10A6600003E0034800210160416028463EBD000030
:10A67000242400200146A1F5404080B270470146E5
:10A68000B1F5404F05DB4FF6FE70814201DC012041
:10A6900070470020FCE710B50446A07FFF2802D0D9
:10A6A000A07F03F061F900206077207204F10800B8
:10A6B000D4E90021904710BD10B504462078182831
:10A6C00002D1FDF7E7FC207010BD10B504462078DC
:10A6D000182802D1FDF7DEFC207010BD70B50546CC
:10A6E0000E46144624B13146284602F030F903E004
:10A6F0003146284602F0C6F870BD30B504461088D1
:10A70000C01C984201D90C2030BD02201588485544
:10A710001088401C10800120158848551088401C66
:10A72000108015884C551088401C10800020EBE7E5
:10A7300070B504460D4640F21442115B0122D4F874
:10A740001004FDF747FA064606B1357004F13C02E5
:10A7500004F5826104F1540072DF70BD2DE9F0410F
:10A7600006460C4615460027112C01D1012700E0B2
:10A77000002765B13A460A4801783046FDF7AEFC3D
:10A780000022084801783046FDF7A8FC05E03A466B
:10A79000044801783046FDF7A1FCBDE8F0810000D7
:10A7A000BB230020B823002010B54FF4405400F024
:10A7B00009F80349086108460069001BC86010BD1C
:10A7C000D024002010B540F6F8700068401C18B97D
:10A7D0004FF01020406902E040F6F8700068034630
:10A7E0004FF0805001694269581C08B1184601E0D9
:10A7F00002FB01F00446204610BD000010B5FFF733
:10A80000D3FF00220249034802F05EFD10BD0000A4
:10A81000A0580300D0240020F7B50D4617460DB907
:10A820000020FEBD0026009868B1002409E0214602
:10A83000684602F07DF818B1A0B23946A847761CE8
:10A84000641C142CF3D33046EBE710B50446606863
:10A8500007F0B2FD10BD00003EB500BF9DF800003E
:10A8600020F00F00401C00909DF8000020F0F00048
:10A870001030009000BF0E2217A168467CDF04460E
:10A8800000BF25463DB100BF17A24FF48671284690
:10A89000FBF7C0FC00BF00BF0020019002900C201D
:10A8A000ADF80400ADF806000020ADF808004FF444
:10A8B000C870ADF80A0001A87ADF044600BF25463B
:10A8C0003DB100BF08A24FF48D712846FBF7A2FCF2
:10A8D00000BF00BF3EBD00004E6F726469635F4100
:10A8E00044533132393200002E2E5C2E2E5C2E2E37
:10A8F0005C6D61696E2E630070B50021084802F03E
:10A900001AF9044600BF25463DB100BF05A240F23A
:10A9100023112846FBF77EFC00BF00BF70BD00007E
:10A92000082500202E2E5C2E2E5C2E2E5C6D61697B
:10A930006E2E630070B5054615B14FF4064070BD2C
:10A940001848007B18B100201649087301E000F098
:10A95000DFF81448007808281DD2DFE800F01C0456
:10A96000080C101C141800F03FF8044616E000F024
:10A97000BDF8044612E000F099F804460EE000F03D
:10A9800047F804460AE000F035F9044606E000F016
:10A9900043F9044602E048F20E6400BF00BF2046BF
:10A9A000CDE70000503200200D480089401C0C49C2
:10A9B000088100204880087300BF0DE000EB800193
:10A9C000084A12F8211009B9012200E000220449C6
:10A9D0000A310A54411C88B20228EFDB704700009C
:10A9E000503200202832002010B5084800F036F818
:10A9F00040B900200549891E08704880486041F62A
:10AA00001D5010BD00F072F8FBE70000523200202C
:10AA100070B50F48458805EB85000E4901EB8000B5
:10AA2000C06878B904200A49087005EB8500094A16
:10AA300002EB8000002301224168074802F08CFBF2
:10AA4000044602E000F090F80446204670BD000085
:10AA50005032002028320020D024002010B50146BA
:10AA60000022002018E00F4B1B5C9BB100240D4B13
:10AA70001C5400EB80030C4C04EB8303DB684BB9E4
:10AA800000EB800304EB83031B7C012B02D10880C5
:10AA9000012203E0431C98B20228E4DB00BF104609
:10AAA00010BD00005A32002028320020F8B50C48B2
:10AAB00044680C4800680B49898800EB8105608870
:10AAC000C01C86B20320064908700020B300009025
:10AAD000084629464268044802F0B6FCF8BD00006A
:10AAE000503200201C240020D024002010B507493B
:10AAF0004888091D07F062FE18B1FFF7D7FF04462A
:10AB000002E0FFF785FF0446204610BD50320020CA
:10AB100010B514480078082820D2DFE800F0041FA0
:10AB20001F0A1016171BFFF73FFF01200D49087081
:10AB300015E000F07DF802200A4908700FE000F0EF
:10AB400029F806200749087009E000BF07200549D9
:10AB5000087004E001200349087000E000BF00BF56
:10AB600010BD00005032002010B5052006490870C5
:10AB70000220064988800846002301220168044813
:10AB800002F0EAFA10BD0000503200201C24002020
:10AB9000D0240020144908681449498801EB810138
:10ABA000134A02EB810149680F4A11600F49498835
:10ABB00001EB81010E4A02EB810148600A49898854
:10ABC0000A4A528802EB8202094B03EB820211818E
:10ABD0000221054A91800021044A528802EB820238
:10ABE00003EB8202117470471C24002050320020B5
:10ABF0002832002010B5062005490870498801EB6D
:10AC00008101044A02EB8101486805F0E7FA10BDB2
:10AC1000503200202832002010B507200349087068
:10AC20000020486005F0EAFA10BD00005032002014
:10AC3000054A50684288D21C91B2044A92880A445C
:10AC4000024B9A8070470000503200201C240020E4
:10AC50002DE9F04186B00446A688208850282ED0E1
:10AC600004DC352836D0362808D189E0522802D0B5
:10AC70005428F9D103E0304601F076FAB9E0142205
:10AC8000634901A8FBF700FCADF80660304600F010
:10AC900093FDADF80800BDF8080000F09FFA00220F
:10ACA0005C4801783046FDF719FA00225A480178CD
:10ACB0003046FDF713FA01A8FFF710FA99E0A01D3E
:10ACC000FEF722F928B10121304601F0AFFA09F070
:10ACD000ADFF8EE00027A68804F10A054F480178F1
:10ACE0003046FDF7E5F900B983E000224B480178D2
:10ACF0003046FDF7F3F9E088B0F5857F3AD0E0887B
:10AD000058B1E2884649474BC91AC908022343EAA9
:10AD1000014045A103F048F92CE0288801280AD019
:10AD20002A883F493F4BC91AC908022343EA014018
:10AD30004CA103F039F9688801280BD06A8838499A
:10AD4000384BC91AC908022343EA014054A103F051
:10AD50002BF90FE0A98800223046A1DF8046B8F128
:10AD6000000F06D1012701225C4801783046FDF72B
:10AD7000B5F900BF1FB90021304609F091FA38E05B
:10AD80000027A68804F10A05544801783046FDF7EB
:10AD90008FF900B92DE00022504801783046FDF7C8
:10ADA0009DF9E08858B1E2881D491E4BC91AC908AF
:10ADB000022343EA01401CA103F0F6F814E0A8883E
:10ADC00001280BD0AA881649164BC91AC9080223B4
:10ADD00043EA014032A103F0E7F805E0A87908B1A1
:10ADE000012000E0002007463946304609F058FAB5
:10ADF00000BF00BF00BF002239493A480078FDF784
:10AE0000E9F800BF08F006FC06B0BDE8F0810000DC
:10AE1000D4550300B3220020B2220020B522002026
:10AE2000C8750300C8750300556E65787065637456
:10AE3000656420474154542073746174757320779E
:10AE400068696C652067657474696E672043415258
:10AE500020636861722076616C75653A20307825D0
:10AE6000780000004D756C7469706C65202825644D
:10AE7000292043415220636861726163746572697D
:10AE8000737469637320666F756E642C20757369C3
:10AE90006E67207468652066697273742E00000006
:10AEA000556E657870656374656420434152206314
:10AEB0006861726163746572697374696320766135
:10AEC0006C7565206C656E67746820282564292C74
:10AED0002073746F726520302E000000B6220020AF
:10AEE00033780200B122002010B50446207858B90A
:10AEF000608801F039F9608808F07CFB6088FDF714
:10AF0000CDFF09F093FE00E000BF00BF10BD0000C0
:10AF100010B500F013FEFDF7BDF82A490870FDF7E3
:10AF2000B9F829490870FDF7B5F828490870FDF708
:10AF3000B1F827490870FDF7ADF826490870FDF70C
:10AF4000A9F825490870FDF7A5F8244908701D489F
:10AF50000078182817D01C480078182813D01B48F0
:10AF6000007818280FD01A48007818280BD01948F4
:10AF70000078182807D018480078182803D0084609
:10AF8000007818280BD11649164A891AC9080122D7
:10AF900042EA0140144902F0FDFF032010BD00BF4A
:10AFA00000201249086000BF00BF00BF00BFBFF310
:10AFB0005F8F00BF00BF00BF00BF01200C490870B9
:10AFC0000020EBE7B0220020B1220020B2220020B6
:10AFD000B3220020B4220020B5220020B622002097
:10AFE000C8750300C87503009C5B0300AC220020F9
:10AFF000A82200207CB504462078082840D1607A39
:10B0000000283DD1207A012814D0072802D0082832
:10B0100034D12BE0A08800F0FFFA05464FF6FF7010
:10B02000854206D00121284601F000F92846FDF7A7
:10B0300035FF24E0A0886A46012105F0B1FA0646F2
:10B040009EB90198007880B1A08800F0E5FA054625
:10B050004FF6FF70854207D001220B480178284641
:10B06000FDF73CF808F0D6FA00BF08E00748006892
:10B07000012802D1054803F0B1F900E000BF00BF8C
:10B0800009F0D4FD7CBD0000B2220020AC220020DB
:10B0900070B50B48FEF7F2FB0A4B0CCB841843F15A
:10B0A0000005094903C9201A75EB010004D24FF0CD
:10B0B0008073E41845F100052046294670BD000064
:10B0C000D8230020E8230020F02300202DE9FC41B4
:10B0D0000F2002F06DFB112002F06AFB0C2002F041
:10B0E00067FB0C2000BF4FF0A0410A46012303FA82
:10B0F00000F1C2F8081500BF00BFC82505B90EE071
:10B1000000BF4FF47A7606B905E02D4F4FEA861856
:10B110004046B84700BF681E051EF2D100BF03F0CD
:10B12000F9FE044600BF25463DB100BF25A240F20E
:10B130004A312846FBF76EF800BF00BF254800687B
:10B14000019001208DF80500234A01A90D2003F08C
:10B1500067FE044600BF25463DB100BF19A240F27C
:10B1600052312846FBF756F800BF00BF01210D20E1
:10B1700003F000FE1748001D0068009003208DF8C2
:10B180000100154A6946052003F04AFE044600BF47
:10B1900025463DB100BF0BA240F25A312846FBF7CD
:10B1A00039F800BF00BF0121052003F0E3FDFBF7E4
:10B1B000FAF9FBF7F7FB022000F016FCBDE8FC8172
:10B1C000015503002E2E5C2E2E5C2E2E5C6D6169C7
:10B1D0006E2E63000855030021B802001CB504461A
:10B1E000044903C9CDE9000100226946204605F063
:10B1F000E5FB1CBDF855030010B500F0A5FC0120CF
:10B2000001490870002010BDBC2200202DE9FC4738
:10B210000546284600F0D0FA06460027B8464FF00B
:10B2200003094FF0010A4FF6FF7086420DD06A46BF
:10B230000821304605F0B4F9044634B90198871D59
:10B24000B0F80480D0F8009000BF00BF4B464246E3
:10B2500039462846B1DF0446042C01D1112422E0EE
:10B26000082C01D100241EE00B2C1CD14FF0000A49
:10B2700009F0020010B14FF0010914E017B9B8F15C
:10B28000000F04D00027B8464FF003090BE00A492D
:10B290000A4A891AC908012242EA01402A46084995
:10B2A00002F082FE03240B2CD0D0BAF1000F00D1A3
:10B2B0000B242046BDE8FC87D0750300C875030049
:10B2C000645E03002DE9FC5F8046404600F074FA9E
:10B2D00006464FF6FF70864203D143F20200BDE8F6
:10B2E000FC9F4FF001094FF0000A00BF4FF0000A29
:10B2F0004A46511C1FFA81F96B460821304605F079
:10B30000B1F90446002C31D1019D032028602A1D8B
:10B31000A91D40462B68B2DF044634B932460821E5
:10B32000304605F027FA04461FE00C2C02D14FF0FE
:10B33000010A02E0052C00D100240821304605F066
:10B3400009FA074687B1384603F040FC83460C49AA
:10B350000C4A891AC908012242EA01405B4632467A
:10B36000094902F02DFE032400BF02E0072C00D1A2
:10B370000C24BAF1000FB9D100BF2046AFE700009E
:10B38000D0750300C8750300E45D030010B50446E2
:10B39000044800884FF6FF71884201D008F046F952
:10B3A00010BD0000BE220020FEB5044602A8019098
:10B3B000204600F001FA06466A460121304605F0B3
:10B3C000EFF805460DB10020FEBD01980078FBE7BF
:10B3D0002DE9F04105464FF6FF761648B3DF0446E7
:10B3E0008CB1204603F0F2FB07461349134A891A31
:10B3F000C908012242EA01403A46114902F0D4FD4F
:10B400000320BDE8F08100BF4FF6FF7209480188B4
:10B410002846AFDF044643F20300844204D10548C6
:10B420000088401C0349088043F203008442EBD0AB
:10B430002046E6E7C0220020D0750300C87503004F
:10B44000985D030070B504460D46204600F01DF8D7
:10B45000A84201D9022070BDA0884FF6FF71884232
:10B4600004D0208810B1A068401C08B90120F2E780
:10B470000020F0E7024613468B4204D21868401CB5
:10B4800008B1012070470020FCE701464A8801F11D
:10B490000C0000EB8200704710B502F0EDFB08B91C
:10B4A00002F0C8FF10BD3EB504460D4620780221CB
:10B4B000B1EB500F01D000203EBDB4F80100ADF853
:10B4C0000800E0788DF80A00A188ADF80010A07996
:10B4D0008DF8020001AA69462846FBF709FF0322FE
:10B4E00001A902A8FAF7FBFF08B90120E4E7002050
:10B4F000E2E7000070B504460D46142C03DA20463E
:10B50000FCF702FE10B943F2020070BD04EB8400A8
:10B51000054901EB4000D0F802102960C188A980DC
:10B52000007AA8710020F0E7FC2C002030B591B023
:10B5300005462888102801D011B030BD2C22291DC5
:10B5400006A8FAF7A1FF4FF6FF749DF81C0003212F
:10B55000B1EB500F35D005F0DBF99DF81C00400829
:10B5600020B1012803D0022828D114E000BF09E04F
:10B57000049800F1110107A8FBF762FD10B1BDF8B6
:10B58000144006E003AA05A9072005F08BF900285E
:10B59000EED100BF13E008E00498411C07A8FFF7B4
:10B5A00082FF10B1BDF8144006E003AA05A90720E8
:10B5B00005F078F90028EFD100BF00E000BF00BF20
:10B5C00000BFBDF8180000EB8000124921F81040C0
:10B5D000BDF8180000EB800001EB40000799C0F8AF
:10B5E0000210BDF82010C1809DF8221001724FF6A4
:10B5F000FF7084420CD0BDF81800ADF80600ADF81D
:10B60000084000208DF8040001A8FEF78FFD00BF60
:10B6100000BF91E7FC2C002070B505464FF6FF7087
:10B62000854200D170BD00240EE004EB840009497E
:10B6300031F81000A84205D12046FCF765FD08B19D
:10B640002046EFE7601C84B2142CEEDB4FF6FF704F
:10B65000E8E70000FC2C00203EB505460C4605F04E
:10B6600057F90BE0BDF80800A04207D02846019921
:10B6700000F00EF810B1BDF808003EBD6A4602A900
:10B68000072005F00FF90028ECD14FF6FF70F4E722
:10B690002DE9F04704460D4604F1110605F11107A6
:10B6A0001022691C601CFAF71AFF48B9601C00F0F0
:10B6B000EEFB28B1681C00F0EAFB08B1012000E0B5
:10B6C0000020824639463046FBF7BAFC8046307887
:10B6D0000221B1EB500F10D030780321B1EB500FA5
:10B6E0000BD038780221B1EB500F06D03878032107
:10B6F000B1EB500F01D0012000E000208146B8F1ED
:10B70000000F02D0B9F1000F05D1BAF1000F05D03A
:10B71000B9F1000F02D10120BDE8F0870020FBE75E
:10B720000246108808B101207047002105E0901CF6
:10B73000405C08B10120F7E7491C0829F7D3002035
:10B74000F2E770B505460C462846FFF7E9FF08B951
:10B75000002070BD28882188884201D00020F8E7A9
:10B760000822A11CA81CFAF7BAFE08B90120F0E7CC
:10B770000020EEE7142804DA00EB8002014B23F8E6
:10B7800012107047FC2C002070B506463046FFF7BB
:10B7900043FF0446304604F00FFF054645B9142C1C
:10B7A00006DA4FF6FF7004EB8401024A22F811001A
:10B7B000284670BDFC2C002010B50446142C03DA7A
:10B7C0002046FCF7A1FC10B94FF6FF7010BD04EB4A
:10B7D0008400024931F81000F8E70000FC2C00203A
:10B7E0003EB5044605F094F810E0019800F14601DA
:10B7F0002046FFF7A6FF30B9019800F12A01204644
:10B80000FFF79FFF10B1BDF808003EBD6A4602A9D0
:10B81000072005F047F80028E7D14FF6FF70F4E75E
:10B820002DE9F04104460F460D2C14D100224FF4AF
:10B8300000410C480068FBF707FF054600BF2E4695
:10B840003EB100BF08A240F233313046FAF7E2FCC5
:10B8500000BF00BF00BF052C01D1FBF74DFCBDE8C8
:10B86000F0810000F05403002E2E5C2E2E5C2E2E54
:10B870005C6D61696E2E630070B504460D46094823
:10B880006060094801F080F850B903F099F8064962
:10B8900008741C238C2205490548006800F0A6FFA7
:10B8A000002070BD90580300083300206C32002047
:10B8B0009C5803002DE9F04106460C4648F20E67FD
:10B8C00036B10020434948604FF40640BDE8F0819E
:10B8D000207930B101280AD0022835D003286DD153
:10B8E00040E00120207104F089FC074667E04FF03A
:10B8F0000008002519E005EB8500374911F8200004
:10B90000022810D1002005EB8501334A02F82100FE
:10B910004FF0010805EB850102EB8101486804F056
:10B920005DFC074603E0681C85B2022DE3DB00BF27
:10B93000B8F1000F07D101202649087000204860A7
:10B9400041F61D50C2E73AE0002020710220234951
:10B9500088800846002301220168214801F0FCFB91
:10B9600007462CE0002020711C49086804F036FCD2
:10B9700007461C4845881948D0F8008005EB85002B
:10B98000154901EB800040681449086005EB85000B
:10B99000114901EB8000C0F804801048808805EB55
:10B9A00085010D4A02EB8101088102200B49888044
:10B9B000002005EB850102F8210000E000BF00BF78
:10B9C0002FB100200349486048F20D607EE7002057
:10B9D0007CE7000008240020283200201C240020DE
:10B9E000D02400205032002010B50446C82001F0B9
:10B9F000D7F9FAF712FE0A2001F0D2F9FAF746FE5B
:10BA00000A2001F0CDF9FAF78FFE10490870642082
:10BA100001F0C6F924B1012C05D0022C09D105E0B2
:10BA200008F057F806E008F0B1FC03E0FEF76FF805
:10BA300000E000BF00BFFAF73CFE282001F0B0F99B
:10BA4000FAF7D8FD0A2001F0ABF910BD75220020ED
:10BA5000024600210CE001EB8100074B33F8200087
:10BA6000904204D101EB810003EB80007047491C38
:10BA70000029F0D00020F9E7502C00202DE9FC5FD0
:10BA800083460E4691461F46DDE90C45002E01DA3D
:10BA9000704200E0304682464FF0010803E09AFB16
:10BAA000F9FA08F10108CA45F9DA474500D9B8465C
:10BAB00034B1002E03DB05F00400042800D1641E1D
:10BAC00005F0020000B167B105F0010048B944B1CA
:10BAD00004E0641E20215846FDF7BEF90CB1A045D4
